{"abi":[{"type":"function","name":"balanceOf","inputs":[{"name":"","type":"address","internalType":"address"}],"outputs":[{"name":"","type":"uint256","internalType":"uint256"}],"stateMutability":"view"},{"type":"function","name":"getReward","inputs":[],"outputs":[{"name":"","type":"uint256","internalType":"uint256"}],"stateMutability":"view"},{"type":"function","name":"stake","inputs":[{"name":"amount","type":"uint256","internalType":"uint256"}],"outputs":[],"stateMutability":"nonpayable"},{"type":"function","name":"token","inputs":[],"outputs":[{"name":"","type":"address","internalType":"contract IERC20"}],"stateMutability":"view"},{"type":"function","name":"unstake","inputs":[{"name":"amount","type":"uint256","internalType":"uint256"}],"outputs":[],"stateMutability":"nonpayable"}],"bytecode":{"object":"0x6080604052348015600f57600080fd5b5061041b8061001f6000396000f3fe608060405234801561001057600080fd5b50600436106100575760003560e01c80632e17de781461005c5780633d18b9121461007157806370a082311461008c578063a694fc3a146100ac578063fc0c546a146100bf575b600080fd5b61006f61006a3660046102ec565b6100f2565b005b610079610196565b6040519081526020015b60405180910390f35b61007961009a366004610305565b60006020819052908152604090205481565b61006f6100ba3660046102ec565b610242565b6100da7306325440d014e39736583c165c2963ba99faf14e81565b6040516001600160a01b039091168152602001610083565b336000908152602081905260408120805483929061011190849061034b565b909155505060405163a9059cbb60e01b8152336004820152602481018290527306325440d014e39736583c165c2963ba99faf14e9063a9059cbb906044016020604051808303816000875af115801561016e573d6000803e3d6000fd5b505050506040513d601f19601f82011682018060405250810190610192919061035e565b5050565b600080670de0b6b3a764000073dc24316b9ae028f1497c275eb9192a3ea0f670226001600160a01b031663bb7b8b806040518163ffffffff1660e01b8152600401602060405180830381865afa1580156101f4573d6000803e3d6000fd5b505050506040513d601f19601f820116820180604052508101906102189190610380565b336000908152602081905260409020546102329190610399565b61023c91906103b0565b92915050565b6040516323b872dd60e01b8152336004820152306024820152604481018290527306325440d014e39736583c165c2963ba99faf14e906323b872dd906064016020604051808303816000875af11580156102a0573d6000803e3d6000fd5b505050506040513d601f19601f820116820180604052508101906102c4919061035e565b5033600090815260208190526040812080548392906102e49084906103d2565b909155505050565b6000602082840312156102fe57600080fd5b5035919050565b60006020828403121561031757600080fd5b81356001600160a01b038116811461032e57600080fd5b9392505050565b634e487b7160e01b600052601160045260246000fd5b8181038181111561023c5761023c610335565b60006020828403121561037057600080fd5b8151801515811461032e57600080fd5b60006020828403121561039257600080fd5b5051919050565b808202811582820484141761023c5761023c610335565b6000826103cd57634e487b7160e01b600052601260045260246000fd5b500490565b8082018082111561023c5761023c61033556fea2646970667358221220af2692d638f71e9eccf6b217eabae0d7a8927b00b26420453631e7d6f03d8c5464736f6c634300081b0033","linkReferences":{}},"methodIdentifiers":{"balanceOf(address)":"70a08231","getReward()":"3d18b912","stake(uint256)":"a694fc3a","token()":"fc0c546a","unstake(uint256)":"2e17de78"},"id":25}